:100000000C943E000C945D000C9490000C945B00EA
:100010000C945B000C945B000C945B000C945B00F4
:100020000C945B000C94D0010C945B000C945B006E
:100030000C945B000C945B000C945B000C945B00D4
:100040000C945B000C945B000C945B000C945B00C4
:100050000C945B000C945B000C945B000C945B00B4
:100060000C945B000C945B000C945B000C945B00A4
:100070000C945B000C945B000C945B0011241FBE7D
:10008000CFEFD0E1DEBFCDBF13E0A0E0B1E0E2EE04
:10009000FDE002C005900D92A03AB107D9F723E028
:1000A000A0EAB3E001C01D92AB3BB207E1F70E94AA
:1000B00098040C94EF060C9400001F920F920FB658
:1000C0000F9211242F933F934F935F936F937F93DE
:1000D0008F939F93AF93BF93CF93DF93EF93FF9350
:1000E000C0EAD3E0198282E08A831B820E941B044B
:1000F0006C837D838E8381E08883FF91EF91DF9114
:10010000CF91BF91AF919F918F917F916F915F91AF
:100110004F913F912F910F900FBE0F901F90189508
:100120001F920F920FB60F9211241F932F933F939C
:100130004F935F936F937F938F939F93AF93BF93EF
:10014000CF93DF93EF93FF93C0EAD3E011E01983DD
:1001500082E08A838B830E941B046C837D838E8361
:100160001883FF91EF91DF91CF91BF91AF919F9154
:100170008F917F916F915F914F913F912F911F913F
:100180000F900FBE0F901F9018951092C5008DE430
:100190008093C40088E18093C10086E08093C20010
:1001A00008958091C00087FFFCCF8091C60008951C
:1001B0009091C00095FFFCCF8093C6000895CF9327
:1001C000DF93EC018991882319F00E94D800FACFBF
:1001D000DF91CF9108950F931F93CF93DF93EC019D
:1001E0008B0186E0282F269FC001279F900D1124A8
:1001F0000E949905198218829801215031093B8388
:100200002A831D821C821F830E8399878887CE01D3
:10021000DF91CF911F910F910895FC0181E04481FE
:100220005581268137814217530709F080E00895F0
:1002300021E0FC0184819581892B09F020E0822F47
:1002400008950F931F93CF93DF9300D000D000D079
:10025000CDB7DEB78C0129833A834B835C836D83F2
:100260007E83FC016681778184819581861797075B
:10027000F1F08281938101960E948505AC01938300
:10028000828396E0949F9001959F300D1124A08564
:10029000B185A20FB31FFE01319601900D929A9580
:1002A000E1F7F801848195810196958384832696F0
:1002B0000FB6F894DEBF0FBECDBFDF91CF911F9177
:1002C0000F910895CF93DF93CDB7DEB72C970FB67C
:1002D000F894DEBF0FBECDBF9C01DC018D919C91D7
:1002E000119766E0689FA001699F500D1124189630
:1002F000ED91FC911997E40FF51F46E0DE0117968A
:1003000001900D924A95E1F70196F9016681778196
:100310000E948505918380838481958101979583CF
:10032000848386E0FE013796DE01119601900D92DE
:100330008A95E1F729813A814B815C816D817E81CB
:1003400080E090E02C960FB6F894DEBF0FBECDBFD4
:10035000DF91CF910895FC0184810895382F462FB5
:10036000FB0180E090E02E2F241B231720F4219125
:10037000820F911DF8CF089580910101811102C073
:1003800081E001C08F5F8093010108958091000199
:10039000811102C081E001C08F5F80930001089548
:1003A0001F920F920FB60F9211242F933F934F93EA
:1003B0005F936F937F938F939F93AF93BF93EF93CD
:1003C000FF938091B6038F5F8093B6039091B5033E
:1003D0008E3239F4953028F481E08093B403109282
:1003E000B603953060F083E692E00E94DF000E9441
:1003F0008B041092B5031092B6031092B403FF91D0
:10040000EF91BF91AF919F918F917F916F915F918C
:100410004F913F912F910F900FBE0F901F90189505
:100420008091B5038F5F8093B50308951092B50353
:100430000895BF92CF92DF92EF92FF920F931F9396
:10044000CF93DF93CDB7DEB760970FB6F894DEBFDA
:100450000FBECDBF0F83188729873A874B875C87EC
:10046000F62E6D877E878F87988BC62ED12CC6017E
:1004700007960E9499058C0180910101F801808303
:1004800011828885828389858383F48225E0A60191
:100490004C5F5F4F822F90E0481759076CF0F801CE
:1004A000E80FF91FA6E0B0E0AC0FBD1FA80FB91F01
:1004B0008C9180832F5FEECFB80185E08F0D0E9475
:1004C000AE01F801EC0DFD1D9C0194E036952795D9
:1004D0009A95E1F725838683F7E0FF0EEA848EE89C
:1004E00092E00E94DF00B02E68018C2D8B198F15D1
:1004F00088F4F60181916F014AE0BE016F5F7F4F82
:1005000090E00E94BA060E94DF008EE993E00E940C
:10051000DF00EBCF87EA92E00E94DF001A830983B5
:10052000202F3A816D817E814F2D5E2D80E090E0FD
:1005300060960FB6F894DEBF0FBECDBFDF91CF91AE
:100540001F910F91FF90EF90DF90CF90BF90089593
:100550002F923F924F925F926F927F928F929F92D3
:10056000AF92BF92CF92DF92EF92FF920F931F93C1
:10057000CF93DF9300D000D01F92CDB7DEB7282EE7
:100580007B018A014901DB011296CC901297ED9113
:10059000FC918481F9018283DA0115961C928CEA20
:1005A00092E00E94DF00D12CF7018281D816A8F4D6
:1005B000D701ED91FC91ED0DF11D80814AE0BE0166
:1005C0006F5F7F4F90E00E94BA060E94DF008EE9C5
:1005D00093E00E94DF00D394E7CF87EA92E00E9485
:1005E000DF00D701AD90BC90F50181818823D9F15E
:1005F00085EC92E00E94DF00D7010D911C91F8017B
:100600002181022E000C330B8091010190E028170C
:10061000390719F08FED92E0D5C0B8018EEF8C0D3F
:100620000E94AE010C0D111DF8013297408150E07F
:100630009C0174E0369527957A95E1F733274217A8
:10064000530739F43196208130E09927281739076C
:1006500019F086E193E0B6C00E948B041092B403B7
:100660000E94BC01B1C02EEF322E3C0CB501832D8F
:100670000E94AE01D12C3601F2E06F1A7108F5012B
:10068000E60DF71D408150E09C0164E0369527950A
:100690006A95E1F733274217530769F4260121E0F1
:1006A000421A5108F501E40DF51D208130E099272B
:1006B0002817390719F086E493E084C081E793E0B6
:1006C0000E94DF00C6010E949905FC01D8018D93AC
:1006D0009C93809100018083D7012D913C91D90199
:1006E0008C91818313968C911397828312968C91AF
:1006F0001297838314968C918483F7018281D801A9
:1007000012968C9380E0D40112969C918917C0F4C4
:10071000482F50E09A012B5F3F4FD701ED91FC919C
:10072000E20FF31F9081F401E40FF51F9083F801AD
:1007300040815181FA01E20FF31F10828F5FE3CFF6
:10074000F801E080F180B701832D0E94AE01F7012E
:10075000E60DF71D9C0194E0369527959A95E1F7F3
:100760002083D8012D913C911197F901E40DF51DDD
:10077000808313962C92139781E014968C93149790
:1007800015968C938CE893E00E94DF00F12CF80121
:100790008281F816A8F4D801ED91FC91EF0DF11DBE
:1007A00080814AE0BE016F5F7F4F90E00E94BA06F1
:1007B0000E94DF008EE993E00E94DF00F394E7CF10
:1007C00087EA92E00E94DF000F900F900F900F9049
:1007D0000F90DF91CF911F910F91FF90EF90DF90DD
:1007E000CF90BF90AF909F908F907F906F905F90D1
:1007F0004F903F902F900895CF93DF93EC01888125
:1008000099810E943106CE01DF91CF910C9431067F
:10081000E89AE9E6F0E0808183608083089580E4CF
:1008200080937C00EAE7F0E08081866080838081AD
:1008300080688083089580917A00806480937A0034
:1008400080917A0086FDFCCF8091780090917900AC
:10085000692F782F82E00895559AE0E8F0E08081D2
:100860008068808380818B608083E1E8F0E0808114
:10087000826080830895CF93DF9300D01F92CDB71D
:10088000DEB7762767277627709389006093880004
:100890000F900F900F90DF91CF91089581309105C7
:1008A00039F08230910549F0892B69F40C940804E1
:1008B000E99A809169008C6004C0EA9A809169008D
:1008C0008063809369000895E0EBF0E08081806CA4
:1008D0008083E1EBF0E08081876880838FEF8093F5
:1008E000B30008950E94C50078941AB88BB18C604B
:1008F0008BB90E94080481E090E00E944E040E949F
:100900000F040E942C040C946404E0E7F0E0808162
:10091000826080830895E0E7F0E080818D7F8083AE
:1009200008959091700081E0911101C080E00895D8
:10093000CF93DF93CDB7DEB7A1970FB6F894DEBFA4
:100940000FBECDBF0E94C50088E091E00E94DF008D
:1009500064E170E0CE0148960E94EB008AE0FE015F
:100960007896AAEAB3E001900D928A95E1F70E9489
:100970007204198A1A8A8091A003882371F18AE18E
:1009800091E00E94DF008BE391E00E94DF008EE5A2
:1009900091E00E94DF000091A0031091A10320913B
:1009A000A2033091A3034091A4035091A503609149
:1009B000A6037091A7038091A8039091A9030E94B8
:1009C000190229833A834B835C836D837E838AEA91
:1009D00093E00E9421011092A0038A89882369F084
:1009E0008FE791E00E94DF006091A7037091A80358
:1009F0008091A9030E943B041A8A8AEA93E00E942C
:100A00001801811145C00E949104811141C086E9FD
:100A100091E00E94DF0089EB91E00E94DF008EED03
:100A200091E00E94DF0081E092E00E94DF008AEA0C
:100A300093E00E94AB0145E0BE016D5E7F4F90E008
:100A40000E94BA060E94DF0087E191E00E94DF0069
:100A50008AEA93E00E9462012F83388749875A8788
:100A60006B877C870E9485048FE295E70197F1F7F9
:100A700000C000000E948B04E985F0E031978F816F
:100A80009885E80FF91F80818F5F808311E020C077
:100A90008091B4038823D9F080E192E00E94DF00C6
:100AA0000E94910445E0BE016D5E7F4F90E00E9480
:100AB000BA060E94DF0087E191E00E94DF0080E239
:100AC00092E00E94DF000E9410021092B40310E036
:100AD0008989882339F089E392E00E94DF00198A2E
:100AE0000E94C601112309F446CF8FE492E00E94D0
:100AF000DF0027EA33E0AE01435F5F4FBE01695F6D
:100B00007F4F80E00E94A80236CFAA1BBB1B51E199
:100B100007C0AA1FBB1FA617B70710F0A61BB70B6D
:100B2000881F991F5A95A9F780959095BC01CD0112
:100B300008950F931F93CF93DF938230910510F4A4
:100B400082E090E0E091B903F091BA0320E030E058
:100B5000A0E0B0E0309719F140815181028113810A
:100B600048175907C8F08417950769F4109731F0B2
:100B700012960C93129713961C9327C00093B903F7
:100B80001093BA0322C02115310519F042175307FB
:100B900018F49A01BD01EF01DF01F801DBCF211547
:100BA0003105F9F0281B390B2430310580F48A8196
:100BB0009B816115710521F0FB019383828304C041
:100BC0009093BA038093B903FE01329644C0FE01AC
:100BD000E20FF31F819391932250310939832883C7
:100BE0003AC02091B7033091B803232B41F42091F0
:100BF0000401309105013093B8032093B70320918D
:100C00000201309103012115310541F42DB73EB7A2
:100C10004091060150910701241B350BE091B70369
:100C2000F091B803E217F307A0F42E1B3F0B28172F
:100C3000390778F0AC014E5F5F4F2417350748F055
:100C40004E0F5F1F5093B8034093B7038193919366
:100C500002C0E0E0F0E0CF01DF91CF911F910F9152
:100C60000895CF93DF93009709F481C0FC01329778
:100C700013821282A091B903B091BA03109781F444
:100C800020813181820F931F2091B7033091B803E7
:100C90002817390751F5F093B803E093B70367C0FD
:100CA000ED0120E030E0CE17DF0740F44A815B81A0
:100CB0009E0141155105F1F0EA01F5CFD383C283BE
:100CC00040815181840F951FC817D90759F4888135
:100CD0009981840F951F0296918380838A819B81DD
:100CE000938382832115310529F4F093BA03E093AD
:100CF000B9033DC0E901FB83EA8349915991C40FCF
:100D0000D51FEC17FD0761F480819181840F951F39
:100D10000296E90199838883828193819B838A83E8
:100D2000E0E0F0E012968D919C911397009719F0F6
:100D3000FD01DC01F7CF8D919C9111979D012E5FF4
:100D40003F4F820F931F2091B7033091B8032817AC
:100D5000390769F4309729F41092BA031092B90355
:100D600002C013821282B093B803A093B703DF913D
:100D7000CF910895BB274A3031F4992322F4BDE284
:100D8000909581959F4F0C94C606BB27FB01552774
:100D9000AA27880F991FAA1FA41710F0A41B8395D8
:100DA0005051B9F7A05DAA3308F0A95DA19300974F
:100DB00079F7B111B1931192CB010C94DF06DC01EC
:100DC000FC01672F71917723E1F7329704C07C9182
:100DD0006D9370836291AE17BF07C8F30895F894BE
:020DE000FFCF43
:100DE20001010000BB0320000D0A496E69746961AC
:100DF200697A696E670D0A0D0A000D0A2A2A2A2AE3
:100E02002A2A2A2A2A2A2A2A2A2A2A2A2A2A2A2A40
:100E12002A2A2A2A2A2A2A2A2A2A000A0D2A2A20A1
:100E220020415050203A202020425554544F4E2009
:100E32005052455353454420202A2A0A0D002A2A9B
:100E42002A2A2A2A2A2A2A2A2A2A2A2A2A2A2A2A00
:100E52002A2A2A2A2A2A2A2A2A2A2A2A0D0A000A77
:100E62000D415050203A20202055504441544520F5
:100E72004C45440A0D000D0A2D2D2D2D2D2D2D2D05
:100E82002D2D2D2D2D2D2D2D2D2D2D2D2D2D2D2D90
:100E92002D2D2D2D2D2D2D2D000A0D7C20202054A1
:100EA20052414E533A2020205452414E534D495400
:100EB20054494E472020202020207C0D0A002D2D51
:100EC2002D2D2D2D2D2D2D2D2D2D2D2D2D2D2D2D50
:100ED2002D2D2D2D2D2D2D2D2D2D2D2D2D2D0D0A83
:100EE200004275666665722053697A65203A200071
:100EF20054696D657220737461747573203A2000B1
:100F02000A0D5452414E533A20202052452D54523C
:100F1200414E534D49540A0D000A0D5452414E534D
:100F22003A20202053454E442041434B0A0D000AEB
:100F32000D4E45543A20202053454E442041434B08
:100F42000A0D000D0A476976696E67207570207276
:100F52006573656E64696E67207468652073656782
:100F62006D656E74206E6F772E2E2E0D0A00544C16
:100F7200207472616E736D6974207365676D656E3E
:100F8200743A205B202000205D0D0A00544C207230
:100F920065636569766564207365676D656E743A2D
:100FA200205B2020000A0D5452414E533A2020204B
:100FB20052454345495645442041434B0A0D000AD8
:100FC2000D5452414E533A20202052454345495632
:100FD20045442041434B202D3E2053657175656E7B
:100FE2006365206E756D62657220696E636F7272E1
:100FF2006563740A0D000A0D5452414E533A202083
:101002002052454345495645442041434B202D3EFD
:1010120020636865636B73756D20696E636F7272AE
:101022006563740A0D000A0D5452414E533A202052
:10103200204E6F742041434B202D3E206368656330
:101042006B73756D20696E636F72726563740A0DDE
:10105200000A0D5452414E533A2020205041434B36
:101062004147494E472041434B0A0D00544C204111
:10107200434B207365676D656E743A205B202000D8
:00000001FF
